:020000040800F2
:1000000000100020010100080000000000000000B6
:10004000FEE70000000000000000000000000000CB
:100100001E481F4901601F481F4901601F482049C0
:100110000160204C204D20684008C007C00F02D16C
:100120001E49296001E01E49296000BF00BF00BFD1
:1001300000BF00BF00BF00BF00BF00BF00BF00BFC7
:1001400000BF00BF00BF00BF00BF00BF00BF00BFB7
:1001500000BF00BF00BF00BF00BF00BF00BF00BFA7
:1001600000BF00BF00BF00BF00BF00BF00BF00BF97
:1001700000BF00BF00BF00BF00BFCCE718100240A7
:100180000400000000080140401100100408014074
:1001900001111111080801400C0801400C00000079
:0401A000000000005B
:00000001FF
