:020000040800F2
:1000000000100020010100080000000000000000B6
:10004000FEE70000000000000000000000000000CB
:1001000020482149016021482149016021482249B4
:100110000160224C224D234E002021680A00D207A4
:10012000D20F01D0204B18430A00D208D207D20FB9
:1001300001D01F4B18432A68D207D20F01D11B4BA5
:100140001843306000BF00BF00BF00BF00BF00BF4A
:1001500000BF00BF00BF00BF00BF00BF00BF00BFA7
:1001600000BF00BF00BF00BF00BF00BF00BF00BF97
:1001700000BF00BF00BF00BF00BF00BF00BF00BF87
:10018000CAE700BF181002400C0000000008014040
:1001900004401101000C0140040000000808014067
:1001A000080C01400C080140100000002000000075
:0401B000400000000B
:00000001FF
