:020000040800F2
:1000000000100020010100080000000000000000B6
:10004000FEE70000000000000000000000000000CB
:100100000D480E4901600E480E4901600E480F4926
:1001100001600F480F4901600F4810490160104805
:1001200010490160104C114D114E124921601249C5
:1001300029601249316023E0181002401C000000C1
:1001400000080140000011140408014011111111B0
:10015000000C014000000011040C014011110100CD
:1001600000100140111111110C0801400C0C01404C
:100170000C10014010000000C01F00000000000033
:100180007649296000BF00BF00BF00BF00BF00BFAD
:1001900000BF00BF7249296000BF00BF00BF00BFA1
:1001A00000BF00BF00BF00BF6E49296000BF00BF95
:1001B00000BF00BF00BF00BF6949296000BF00BF8A
:1001C00000BF00BF00BF00BF6749296000BF00BF7C
:1001D00000BF00BF00BF00BF6449296000BF00BF6F
:1001E00000BF00BF00BF00BF5E49296000BF00BF65
:1001F00000BF00BF00BF00BF5949296000BF00BF5A
:1002000000BF00BF00BF00BF5749296000BF00BF4B
:1002100000BF00BF00BF00BF5449296000BF00BF3E
:1002200000BF00BF00BF00BF4D49296000BF00BF35
:1002300000BF00BF00BF00BF4849296000BF00BF2A
:1002400000BF00BF00BF00BF00BF00BF00BF00BFB6
:100250004749216000BF00BF00BF00BF00BF00BF13
:100260004349216000BF00BF00BF00BF00BF41493C
:10027000216000BF00BF00BF00BF00BF3F49216039
:1002800000BF00BF00BF00BF00BF3B49216000BFEF
:1002900000BF00BF00BF00BF3549216000BF00BFE5
:1002A00000BF00BF00BF3349216000BF00BF00BFD7
:1002B00000BF00BF3149216000BF00BF00BF00BFC9
:1002C00000BF2D49216000BF00BF00BF00BF00BFBD
:1002D0002B49216000BF00BF00BF00BF00BF00BFAF
:1002E00000BF00BF00BF00BF2A4931602A4921601A
:1002F00000BF00BF00BF00BF00BF00BF234929608F
:1003000000BF00BF00BF00BF00BF00BF00BF00BFF5
:100310001C49296000BF00BF00BF00BF00BF00BF75
:100320001B49296000BF00BF00BF00BF00BF00BF66
:1003300000BF00BF13492960134931601049216093
:1003400000BF00BF00BF00BF00BF00BF00BF00BFB5
:1003500000BF00BF00BF00BF20E000BFC01F000003
:10036000401F0000001F0000801F0000C01F000091
:100370000000000020000000A0000000800000003D
:1003800010000000C01F000000000000C01E0000A0
:0E039000C01B00000100000000010000F0E6AC
:00000001FF
