:020000040800F2
:1000000000100020010100080000000000000000B6
:10004000FEE70000000000000000000000000000CB
:100100005548564901605648564901605649C160F4
:1001100000BF00BF00BF00BF00BF00BF00BF00BFE7
:1001200000BF00BF00BF00BF00BF00BF00BF00BFD7
:1001300000BF00BF00BF00BF00BF00BF00BF00BFC7
:1001400000BF00BF00BF00BF00BF00BF00BF00BFB7
:1001500000BF00BF00BF00BF00BF00BF00BF00BFA7
:1001600000BF00BF00BF00BF00BF00BF00BF00BF97
:1001700000BF00BF00BF00BF00BF00BF00BF00BF87
:1001800000BF00BF00BF00BF00BF00BF00BF00BF77
:1001900000BF00BF00BF00BF00BF00BF00BF00BF67
:1001A00000BF00BF00BF00BF00BF00BF00BF00BF57
:1001B0002E49C16000BF00BF00BF00BF00BF00BF2D
:1001C00000BF00BF00BF00BF00BF00BF00BF00BF37
:1001D00000BF00BF00BF00BF00BF00BF00BF00BF27
:1001E00000BF00BF00BF00BF00BF00BF00BF00BF17
:1001F00000BF00BF00BF00BF00BF00BF00BF00BF07
:1002000000BF00BF00BF00BF00BF00BF00BF00BFF6
:1002100000BF00BF00BF00BF00BF00BF00BF00BFE6
:1002200000BF00BF00BF00BF00BF00BF00BF00BFD6
:1002300000BF00BF00BF00BF00BF00BF00BF00BFC6
:1002400000BF00BF00BF00BF00BF00BF00BF00BFB6
:1002500000BF00BF5AE700BF1810024004000000B2
:100260000008014001000000010000000000000043
:00000001FF
